{
  "contractName": "CryptPad",
  "abi": [
    {
      "inputs": [],
      "payable": false,
      "stateMutability": "nonpayable",
      "type": "constructor"
    },
    {
      "constant": true,
      "inputs": [],
      "name": "projCount",
      "outputs": [
        {
          "internalType": "uint256",
          "name": "",
          "type": "uint256"
        }
      ],
      "payable": false,
      "stateMutability": "view",
      "type": "function"
    },
    {
      "constant": true,
      "inputs": [],
      "name": "transactionCount",
      "outputs": [
        {
          "internalType": "uint256",
          "name": "",
          "type": "uint256"
        }
      ],
      "payable": false,
      "stateMutability": "view",
      "type": "function"
    },
    {
      "constant": false,
      "inputs": [
        {
          "internalType": "address",
          "name": "projAddr",
          "type": "address"
        },
        {
          "internalType": "uint256",
          "name": "buyAmount",
          "type": "uint256"
        }
      ],
      "name": "invest",
      "outputs": [],
      "payable": true,
      "stateMutability": "payable",
      "type": "function"
    },
    {
      "constant": true,
      "inputs": [
        {
          "internalType": "address",
          "name": "projAddr",
          "type": "address"
        }
      ],
      "name": "projectInvestmentPercentage",
      "outputs": [
        {
          "internalType": "uint256",
          "name": "",
          "type": "uint256"
        }
      ],
      "payable": false,
      "stateMutability": "view",
      "type": "function"
    },
    {
      "constant": false,
      "inputs": [
        {
          "internalType": "address payable",
          "name": "projAddr",
          "type": "address"
        }
      ],
      "name": "concludeTransaction",
      "outputs": [],
      "payable": true,
      "stateMutability": "payable",
      "type": "function"
    },
    {
      "constant": false,
      "inputs": [
        {
          "internalType": "string",
          "name": "_projName",
          "type": "string"
        },
        {
          "internalType": "string",
          "name": "_projDesc",
          "type": "string"
        },
        {
          "internalType": "string",
          "name": "_tokenName",
          "type": "string"
        },
        {
          "internalType": "uint256",
          "name": "_tokenValue",
          "type": "uint256"
        },
        {
          "internalType": "uint256",
          "name": "_interestRate",
          "type": "uint256"
        },
        {
          "internalType": "uint256",
          "name": "_projectDuration",
          "type": "uint256"
        },
        {
          "internalType": "uint256",
          "name": "_fundraiseGoal",
          "type": "uint256"
        },
        {
          "internalType": "address payable",
          "name": "_addr",
          "type": "address"
        }
      ],
      "name": "addProject",
      "outputs": [],
      "payable": false,
      "stateMutability": "nonpayable",
      "type": "function"
    },
    {
      "constant": true,
      "inputs": [
        {
          "internalType": "uint256",
          "name": "index",
          "type": "uint256"
        }
      ],
      "name": "getProjectByIndex",
      "outputs": [
        {
          "internalType": "uint256",
          "name": "",
          "type": "uint256"
        },
        {
          "internalType": "string",
          "name": "",
          "type": "string"
        },
        {
          "internalType": "string",
          "name": "",
          "type": "string"
        },
        {
          "internalType": "bool",
          "name": "",
          "type": "bool"
        },
        {
          "internalType": "bool",
          "name": "",
          "type": "bool"
        },
        {
          "internalType": "string",
          "name": "",
          "type": "string"
        },
        {
          "internalType": "uint256",
          "name": "",
          "type": "uint256"
        },
        {
          "internalType": "uint256",
          "name": "",
          "type": "uint256"
        },
        {
          "internalType": "uint256",
          "name": "",
          "type": "uint256"
        },
        {
          "internalType": "uint256",
          "name": "",
          "type": "uint256"
        },
        {
          "internalType": "uint256",
          "name": "",
          "type": "uint256"
        },
        {
          "internalType": "address payable",
          "name": "",
          "type": "address"
        }
      ],
      "payable": false,
      "stateMutability": "view",
      "type": "function"
    },
    {
      "constant": true,
      "inputs": [],
      "name": "getProjectLength",
      "outputs": [
        {
          "internalType": "uint256",
          "name": "",
          "type": "uint256"
        }
      ],
      "payable": false,
      "stateMutability": "view",
      "type": "function"
    },
    {
      "constant": true,
      "inputs": [
        {
          "internalType": "uint256",
          "name": "index",
          "type": "uint256"
        }
      ],
      "name": "getTransactionByIndex",
      "outputs": [
        {
          "internalType": "string",
          "name": "",
          "type": "string"
        },
        {
          "internalType": "address payable",
          "name": "",
          "type": "address"
        },
        {
          "internalType": "uint256",
          "name": "",
          "type": "uint256"
        },
        {
          "internalType": "string",
          "name": "",
          "type": "string"
        },
        {
          "internalType": "uint256",
          "name": "",
          "type": "uint256"
        },
        {
          "internalType": "uint256",
          "name": "",
          "type": "uint256"
        }
      ],
      "payable": false,
      "stateMutability": "view",
      "type": "function"
    },
    {
      "constant": true,
      "inputs": [],
      "name": "getTransactionLength",
      "outputs": [
        {
          "internalType": "uint256",
          "name": "",
          "type": "uint256"
        }
      ],
      "payable": false,
      "stateMutability": "view",
      "type": "function"
    }
  ],
  "bytecode": "0x6080604052600160005560006001556000600255600060035573da3c008efc2e8416c471ae459039ec52c809fb9a600460006101000a81548173ffffffffffffffffffffffffffffffffffffffff021916908373ffffffffffffffffffffffffffffffffffffffff16021790555034801561007957600080fd5b5033600560006101000a81548173ffffffffffffffffffffffffffffffffffffffff021916908373ffffffffffffffffffffffffffffffffffffffff160217905550611ecd806100ca6000396000f3fe6080604052600436106100915760003560e01c806390af78cc1161005957806390af78cc146101b15780639196b229146101cd578063af34b6ae146101f8578063b77bf60014610223578063b9b8c2461461024e57610091565b80630e539a461461009657806313c12af6146100c15780632b7e328a146100fe5780632d647bdc14610146578063869152e71461016f575b600080fd5b3480156100a257600080fd5b506100ab61026a565b6040516100b89190611c39565b60405180910390f35b3480156100cd57600080fd5b506100e860048036036100e39190810190611953565b610277565b6040516100f59190611c39565b60405180910390f35b34801561010a57600080fd5b5061012560048036036101209190810190611adb565b61031c565b60405161013d9c9b9a99989796959493929190611c54565b60405180910390f35b34801561015257600080fd5b5061016d600480360361016891908101906119e1565b610689565b005b34801561017b57600080fd5b5061019660048036036101919190810190611adb565b6109ff565b6040516101a896959493929190611baa565b60405180910390f35b6101cb60048036036101c6919081019061197c565b610e46565b005b3480156101d957600080fd5b506101e2611436565b6040516101ef9190611c39565b60405180910390f35b34801561020457600080fd5b5061020d611443565b60405161021a9190611c39565b60405180910390f35b34801561022f57600080fd5b50610238611449565b6040516102459190611c39565b60405180910390f35b610268600480360361026391908101906119a5565b61144f565b005b6000600680549050905090565b600080600860008473ffffffffffffffffffffffffffffffffffffffff1673ffffffffffffffffffffffffffffffffffffffff1681526020019081526020016000206009015490506000600860008573ffffffffffffffffffffffffffffffffffffffff1673ffffffffffffffffffffffffffffffffffffffff168152602001908152602001600020600801549050606481838161031157fe5b040292505050919050565b60006060806000806060600080600080600080610337611745565b60068e8154811061034457fe5b90600052602060002090600c0201604051806101a001604052908160008201548152602001600182018054600181600116156101000203166002900480601f0160208091040260200160405190810160405280929190818152602001828054600181600116156101000203166002900480156104015780601f106103d657610100808354040283529160200191610401565b820191906000526020600020905b8154815290600101906020018083116103e457829003601f168201915b50505050508152602001600282018054600181600116156101000203166002900480601f0160208091040260200160405190810160405280929190818152602001828054600181600116156101000203166002900480156104a35780601f10610478576101008083540402835291602001916104a3565b820191906000526020600020905b81548152906001019060200180831161048657829003601f168201915b505050505081526020016003820160009054906101000a900460ff161515151581526020016003820160019054906101000a900460ff16151515158152602001600482018054600181600116156101000203166002900480601f01602080910402602001604051908101604052809291908181526020018280546001816001161561010002031660029004801561057b5780601f106105505761010080835404028352916020019161057b565b820191906000526020600020905b81548152906001019060200180831161055e57829003601f168201915b505050505081526020016005820154815260200160068201548152602001600782015481526020016008820154815260200160098201548152602001600a820160009054906101000a900473ffffffffffffffffffffffffffffffffffffffff1673ffffffffffffffffffffffffffffffffffffffff1673ffffffffffffffffffffffffffffffffffffffff168152602001600b820154815250509050806000015181602001518260400151836060015184608001518560a001518660c001518760e001518861010001518961012001518a61014001518b61016001518a9a508999508696509c509c509c509c509c509c509c509c509c509c509c509c505091939597999b5091939597999b565b610691611745565b604051806101a0016040528060005481526020018a815260200189815260200160001515815260200160001515815260200188815260200187815260200186815260200185815260200184815260200160025481526020018373ffffffffffffffffffffffffffffffffffffffff1681526020014281525090506006819080600181540180825580915050906001820390600052602060002090600c02016000909192909190915060008201518160000155602082015181600101908051906020019061075f9291906117c7565b50604082015181600201908051906020019061077c9291906117c7565b5060608201518160030160006101000a81548160ff02191690831515021790555060808201518160030160016101000a81548160ff02191690831515021790555060a08201518160040190805190602001906107d99291906117c7565b5060c0820151816005015560e0820151816006015561010082015181600701556101208201518160080155610140820151816009015561016082015181600a0160006101000a81548173ffffffffffffffffffffffffffffffffffffffff021916908373ffffffffffffffffffffffffffffffffffffffff16021790555061018082015181600b015550505080600860008473ffffffffffffffffffffffffffffffffffffffff1673ffffffffffffffffffffffffffffffffffffffff1681526020019081526020016000206000820151816000015560208201518160010190805190602001906108cb9291906117c7565b5060408201518160020190805190602001906108e89291906117c7565b5060608201518160030160006101000a81548160ff02191690831515021790555060808201518160030160016101000a81548160ff02191690831515021790555060a08201518160040190805190602001906109459291906117c7565b5060c0820151816005015560e0820151816006015561010082015181600701556101208201518160080155610140820151816009015561016082015181600a0160006101000a81548173ffffffffffffffffffffffffffffffffffffffff021916908373ffffffffffffffffffffffffffffffffffffffff16021790555061018082015181600b01559050506001600081548092919060010191905055506000808154809291906001019190505550505050505050505050565b60606000806060600080610a11611847565b60078881548110610a1e57fe5b9060005260206000209060040201604051806080016040529081600082015481526020016001820160009054906101000a900473ffffffffffffffffffffffffffffffffffffffff1673ffffffffffffffffffffffffffffffffffffffff1673ffffffffffffffffffffffffffffffffffffffff1681526020016002820160009054906101000a900473ffffffffffffffffffffffffffffffffffffffff1673ffffffffffffffffffffffffffffffffffffffff1673ffffffffffffffffffffffffffffffffffffffff1681526020016003820154815250509050610b01611745565b60086000836020015173ffffffffffffffffffffffffffffffffffffffff1673ffffffffffffffffffffffffffffffffffffffff168152602001908152602001600020604051806101a001604052908160008201548152602001600182018054600181600116156101000203166002900480601f016020809104026020016040519081016040528092919081815260200182805460018160011615610100020316600290048015610bf35780601f10610bc857610100808354040283529160200191610bf3565b820191906000526020600020905b815481529060010190602001808311610bd657829003601f168201915b50505050508152602001600282018054600181600116156101000203166002900480601f016020809104026020016040519081016040528092919081815260200182805460018160011615610100020316600290048015610c955780601f10610c6a57610100808354040283529160200191610c95565b820191906000526020600020905b815481529060010190602001808311610c7857829003601f168201915b505050505081526020016003820160009054906101000a900460ff161515151581526020016003820160019054906101000a900460ff16151515158152602001600482018054600181600116156101000203166002900480601f016020809104026020016040519081016040528092919081815260200182805460018160011615610100020316600290048015610d6d5780601f10610d4257610100808354040283529160200191610d6d565b820191906000526020600020905b815481529060010190602001808311610d5057829003601f168201915b505050505081526020016005820154815260200160068201548152602001600782015481526020016008820154815260200160098201548152602001600a820160009054906101000a900473ffffffffffffffffffffffffffffffffffffffff1673ffffffffffffffffffffffffffffffffffffffff1673ffffffffffffffffffffffffffffffffffffffff168152602001600b82015481525050905080602001518161016001518260c001518360a0015185600001518660600151859550829250975097509750975097509750505091939550919395565b600860008273ffffffffffffffffffffffffffffffffffffffff1673ffffffffffffffffffffffffffffffffffffffff16815260200190815260200160002060090154600860008373ffffffffffffffffffffffffffffffffffffffff1673ffffffffffffffffffffffffffffffffffffffff168152602001908152602001600020600801541415610fd4578073ffffffffffffffffffffffffffffffffffffffff166108fc349081150290604051600060405180830381858888f19350505050158015610f18573d6000803e3d6000fd5b506001600860008373ffffffffffffffffffffffffffffffffffffffff1673ffffffffffffffffffffffffffffffffffffffff16815260200190815260200160002060030160006101000a81548160ff0219169083151502179055506001600860008373ffffffffffffffffffffffffffffffffffffffff1673ffffffffffffffffffffffffffffffffffffffff16815260200190815260200160002060030160016101000a81548160ff021916908315150217905550611291565b60008090505b6007805490508110156111d9578173ffffffffffffffffffffffffffffffffffffffff166007828154811061100b57fe5b906000526020600020906004020160010160009054906101000a900473ffffffffffffffffffffffffffffffffffffffff1673ffffffffffffffffffffffffffffffffffffffff1614156111cc5760006007828154811061106857fe5b906000526020600020906004020160000154600860008573ffffffffffffffffffffffffffffffffffffffff1673ffffffffffffffffffffffffffffffffffffffff168152602001908152602001600020600501540290506000600783815481106110cf57fe5b906000526020600020906004020160020160009054906101000a900473ffffffffffffffffffffffffffffffffffffffff1673ffffffffffffffffffffffffffffffffffffffff166108fc670de0b6b3a764000084029081150290604051600060405180830381858888f19350505050905080611181576040517f08c379a000000000000000000000000000000000000000000000000000000000815260040161117890611c19565b60405180910390fd5b60006007848154811061119057fe5b9060005260206000209060040201600001819055506000600784815481106111b457fe5b90600052602060002090600402016003018190555050505b8080600101915050610fda565b506000600860008373ffffffffffffffffffffffffffffffffffffffff1673ffffffffffffffffffffffffffffffffffffffff16815260200190815260200160002060030160016101000a81548160ff0219169083151502179055506001600860008373ffffffffffffffffffffffffffffffffffffffff1673ffffffffffffffffffffffffffffffffffffffff16815260200190815260200160002060030160006101000a81548160ff0219169083151502179055505b60008090505b600680549050811015611432578173ffffffffffffffffffffffffffffffffffffffff16600682815481106112c857fe5b90600052602060002090600c0201600a0160009054906101000a900473ffffffffffffffffffffffffffffffffffffffff1673ffffffffffffffffffffffffffffffffffffffff16141561142557600860008373ffffffffffffffffffffffffffffffffffffffff1673ffffffffffffffffffffffffffffffffffffffff16815260200190815260200160002060030160019054906101000a900460ff166006828154811061137357fe5b90600052602060002090600c020160030160016101000a81548160ff021916908315150217905550600860008373ffffffffffffffffffffffffffffffffffffffff1673ffffffffffffffffffffffffffffffffffffffff16815260200190815260200160002060030160009054906101000a900460ff16600682815481106113f857fe5b90600052602060002090600c020160030160006101000a81548160ff021916908315150217905550611432565b8080600101915050611297565b5050565b6000600780549050905090565b60015481565b60035481565b600460009054906101000a900473ffffffffffffffffffffffffffffffffffffffff1673ffffffffffffffffffffffffffffffffffffffff166108fc349081150290604051600060405180830381858888f193505050501580156114b7573d6000803e3d6000fd5b50600760405180608001604052808381526020018473ffffffffffffffffffffffffffffffffffffffff1681526020013373ffffffffffffffffffffffffffffffffffffffff16815260200183600860008773ffffffffffffffffffffffffffffffffffffffff1673ffffffffffffffffffffffffffffffffffffffff1681526020019081526020016000206006015402815250908060018154018082558091505090600182039060005260206000209060040201600090919290919091506000820151816000015560208201518160010160006101000a81548173ffffffffffffffffffffffffffffffffffffffff021916908373ffffffffffffffffffffffffffffffffffffffff16021790555060408201518160020160006101000a81548173ffffffffffffffffffffffffffffffffffffffff021916908373ffffffffffffffffffffffffffffffffffffffff1602179055506060820151816003015550505080600860008473ffffffffffffffffffffffffffffffffffffffff1673ffffffffffffffffffffffffffffffffffffffff1681526020019081526020016000206009016000828254019250508190555060008090505b60068054905081101561172e578273ffffffffffffffffffffffffffffffffffffffff16600682815481106116a257fe5b90600052602060002090600c0201600a0160009054906101000a900473ffffffffffffffffffffffffffffffffffffffff1673ffffffffffffffffffffffffffffffffffffffff1614156117215781600682815481106116fe57fe5b90600052602060002090600c02016009016000828254019250508190555061172e565b8080600101915050611671565b506003600081548092919060010191905055505050565b604051806101a00160405280600081526020016060815260200160608152602001600015158152602001600015158152602001606081526020016000815260200160008152602001600081526020016000815260200160008152602001600073ffffffffffffffffffffffffffffffffffffffff168152602001600081525090565b828054600181600116156101000203166002900490600052602060002090601f016020900481019282601f1061180857805160ff1916838001178555611836565b82800160010185558215611836579182015b8281111561183557825182559160200191906001019061181a565b5b509050611843919061189b565b5090565b604051806080016040528060008152602001600073ffffffffffffffffffffffffffffffffffffffff168152602001600073ffffffffffffffffffffffffffffffffffffffff168152602001600081525090565b6118bd91905b808211156118b95760008160009055506001016118a1565b5090565b90565b6000813590506118cf81611e45565b92915050565b6000813590506118e481611e5c565b92915050565b600082601f8301126118fb57600080fd5b813561190e61190982611d50565b611d23565b9150808252602083016020830185838301111561192a57600080fd5b611935838284611df2565b50505092915050565b60008135905061194d81611e73565b92915050565b60006020828403121561196557600080fd5b6000611973848285016118c0565b91505092915050565b60006020828403121561198e57600080fd5b600061199c848285016118d5565b91505092915050565b600080604083850312156119b857600080fd5b60006119c6858286016118c0565b92505060206119d78582860161193e565b9150509250929050565b600080600080600080600080610100898b0312156119fe57600080fd5b600089013567ffffffffffffffff811115611a1857600080fd5b611a248b828c016118ea565b985050602089013567ffffffffffffffff811115611a4157600080fd5b611a4d8b828c016118ea565b975050604089013567ffffffffffffffff811115611a6a57600080fd5b611a768b828c016118ea565b9650506060611a878b828c0161193e565b9550506080611a988b828c0161193e565b94505060a0611aa98b828c0161193e565b93505060c0611aba8b828c0161193e565b92505060e0611acb8b828c016118d5565b9150509295985092959890939650565b600060208284031215611aed57600080fd5b6000611afb8482850161193e565b91505092915050565b611b0d81611daa565b82525050565b611b1c81611dbc565b82525050565b6000611b2d82611d7c565b611b378185611d87565b9350611b47818560208601611e01565b611b5081611e34565b840191505092915050565b6000611b68601583611d87565b91507f4661696c656420746f2073656e642045746865723200000000000000000000006000830152602082019050919050565b611ba481611de8565b82525050565b600060c0820190508181036000830152611bc48189611b22565b9050611bd36020830188611b04565b611be06040830187611b9b565b8181036060830152611bf28186611b22565b9050611c016080830185611b9b565b611c0e60a0830184611b9b565b979650505050505050565b60006020820190508181036000830152611c3281611b5b565b9050919050565b6000602082019050611c4e6000830184611b9b565b92915050565b600061018082019050611c6a600083018f611b9b565b8181036020830152611c7c818e611b22565b90508181036040830152611c90818d611b22565b9050611c9f606083018c611b13565b611cac608083018b611b13565b81810360a0830152611cbe818a611b22565b9050611ccd60c0830189611b9b565b611cda60e0830188611b9b565b611ce8610100830187611b9b565b611cf6610120830186611b9b565b611d04610140830185611b9b565b611d12610160830184611b04565b9d9c50505050505050505050505050565b6000604051905081810181811067ffffffffffffffff82111715611d4657600080fd5b8060405250919050565b600067ffffffffffffffff821115611d6757600080fd5b601f19601f8301169050602081019050919050565b600081519050919050565b600082825260208201905092915050565b6000611da382611dc8565b9050919050565b6000611db582611dc8565b9050919050565b60008115159050919050565b600073ffffffffffffffffffffffffffffffffffffffff82169050919050565b6000819050919050565b82818337600083830152505050565b60005b83811015611e1f578082015181840152602081019050611e04565b83811115611e2e576000848401525b50505050565b6000601f19601f8301169050919050565b611e4e81611d98565b8114611e5957600080fd5b50565b611e6581611daa565b8114611e7057600080fd5b50565b611e7c81611de8565b8114611e8757600080fd5b5056fea365627a7a72315820134767de06a69e3fd19697238aa42580a28d9459740d7f445e4b21f2d4e329f66c6578706572696d656e74616cf564736f6c63430005100040",
  "source": "//SPDX-License-Identifier: MIT\r\npragma solidity ^0.5.0;\r\npragma experimental ABIEncoderV2;\r\n\r\ncontract CryptPad {\r\n    enum TransactionStatus {Pending, Completed, Refunded}\r\n    uint private constant eighteen_decimals_value = 1000000000000000000;\r\n    uint private constant four_decimals_value = 10000;\r\n\r\n    struct Project{\r\n            uint projectId;\r\n            string projectName;\r\n            string projectDescription;\r\n            bool hasSettledPayment;\r\n            bool projectSuccess;\r\n            string tokenName;\r\n            uint tokenValue;\r\n            uint interestRate;\r\n            uint projectDuration;\r\n            uint fundraiseGoal;\r\n            uint totalRaised;\r\n            address payable projectAddress;\r\n            uint dateCreated;\r\n        }\r\n\r\n    struct Transaction {\r\n        uint amount;\r\n        address projectAddress;\r\n        address payable investorAddress;\r\n        uint interest;\r\n    }\r\n\r\n    uint projectId = 1;\r\n    uint public projCount = 0;\r\n    uint totalRaised = 0;\r\n    uint public transactionCount = 0;\r\n    address payable platformAddress = 0xDa3C008eFC2E8416C471ae459039Ec52C809fB9a;\r\n\r\n    address admin;\r\n    Project[] project;\r\n    Transaction[] transaction;\r\n    \r\n    mapping(address => Project) projects;\r\n\r\n    constructor() public{\r\n        admin = msg.sender;\r\n    }\r\n\r\n    modifier onlyAdmin(){\r\n        require (admin == msg.sender, \"Only admin can use this function\");\r\n        _;\r\n    }\r\n\r\n    \r\n    function invest( address projAddr, uint buyAmount) public payable{\r\n        \r\n        //(bool sent, ) = platformAddress.call {value:msg.value} (\"\");\r\n        //require(sent, \"Failed to send Ether\");\r\n        address(platformAddress).transfer(msg.value);\r\n       //when display at ui, need divide 10000\r\n        transaction.push(Transaction(buyAmount, projAddr, msg.sender, (projects[projAddr].interestRate*buyAmount)));\r\n        \r\n        projects[projAddr].totalRaised += buyAmount;\r\n\r\n        for (uint i = 0; i < project.length; i++) {\r\n            if (project[i].projectAddress == projAddr) {\r\n                project[i].totalRaised += buyAmount;\r\n                break;\r\n            }\r\n        }\r\n\r\n        transactionCount++;\r\n    }\r\n\r\n    function projectInvestmentPercentage(address projAddr) public view returns (uint) {\r\n            uint a = projects[projAddr].totalRaised;\r\n            uint b = projects[projAddr].fundraiseGoal;\r\n\r\n            return (a / b * 100);\r\n    }\r\n\r\n   \r\n    function concludeTransaction(address payable projAddr) public payable{\r\n        if(projects[projAddr].fundraiseGoal == projects[projAddr].totalRaised){\r\n            address(projAddr).transfer(msg.value);\r\n            projects[projAddr].hasSettledPayment = true;\r\n            projects[projAddr].projectSuccess = true;\r\n        }\r\n        else{\r\n           //refund\r\n            for(uint i=0; i < transaction.length; i++){\r\n                if(transaction[i].projectAddress == projAddr){\r\n                    uint refundAmount = projects[projAddr].tokenValue * transaction[i].amount;\r\n                    bool sent = transaction[i].investorAddress.send(refundAmount*eighteen_decimals_value);\r\n                     require(sent, \"Failed to send Ether2\");\r\n                    //update token value\r\n                    transaction[i].amount = 0;\r\n                    transaction[i].interest = 0;\r\n                 }\r\n             }\r\n            projects[projAddr].projectSuccess = false;\r\n            projects[projAddr].hasSettledPayment = true;\r\n        }\r\n\r\n        for (uint i = 0; i < project.length; i++) {\r\n            if (project[i].projectAddress == projAddr) {\r\n                project[i].projectSuccess =  projects[projAddr].projectSuccess;\r\n                project[i].hasSettledPayment =  projects[projAddr].hasSettledPayment;\r\n                break;\r\n            }\r\n        }\r\n    }\r\n\r\n    // Add Project\r\n    function addProject(string memory _projName, string memory _projDesc, string memory _tokenName, uint _tokenValue, uint _interestRate, uint _projectDuration, uint _fundraiseGoal, address payable _addr) public{\r\n        Project memory proj = Project(projectId, _projName, _projDesc, false, false,_tokenName,_tokenValue, _interestRate, _projectDuration, _fundraiseGoal, totalRaised, _addr, block.timestamp);\r\n\r\n        project.push(proj);\r\n        projects[_addr] = proj;\r\n        projCount ++;\r\n        projectId ++;\r\n    }\r\n\r\n    function getProjectByIndex(uint index) public view returns (uint, string memory, string memory, bool, bool, string memory, uint, uint, uint, uint, uint, address payable) {\r\n        Project memory proj = project[index];\r\n\r\n        return (proj.projectId, proj.projectName, proj.projectDescription, proj.hasSettledPayment, proj.projectSuccess, proj.tokenName, proj.tokenValue, proj.interestRate, proj.projectDuration, proj.fundraiseGoal, proj.totalRaised, proj.projectAddress);\r\n    }\r\n\r\n    function getProjectLength() public view returns (uint) {\r\n        return project.length;\r\n    }\r\n\r\n    function getTransactionByIndex(uint index) public view returns (string memory, address payable, uint, string memory, uint, uint) {\r\n        Transaction memory trans = transaction[index];\r\n        Project memory proj = projects[trans.projectAddress];\r\n\r\n        return (proj.projectName, proj.projectAddress, proj.tokenValue, proj.tokenName, trans.amount, trans.interest);\r\n    }\r\n\r\n    function getTransactionLength() public view returns (uint) {\r\n        return transaction.length;\r\n    }\r\n}",
  "sourcePath": "C:\\Users\\User\\Desktop\\CryptPad\\contracts\\CryptPad.sol",
  "compiler": {
    "name": "solc",
    "version": "0.5.16+commit.9c3226ce.Emscripten.clang"
  },
  "schemaVersion": "3.4.3",
  "updatedAt": "2022-06-10T13:58:42.400Z",
  "devdoc": {
    "methods": {}
  },
  "userdoc": {
    "methods": {}
  }
}