{
  "contractName": "CryptPad",
  "abi": [
    {
      "inputs": [],
      "payable": false,
      "stateMutability": "nonpayable",
      "type": "constructor"
    },
    {
      "constant": true,
      "inputs": [],
      "name": "projCount",
      "outputs": [
        {
          "internalType": "uint256",
          "name": "",
          "type": "uint256"
        }
      ],
      "payable": false,
      "stateMutability": "view",
      "type": "function"
    },
    {
      "constant": true,
      "inputs": [],
      "name": "transactionCount",
      "outputs": [
        {
          "internalType": "uint256",
          "name": "",
          "type": "uint256"
        }
      ],
      "payable": false,
      "stateMutability": "view",
      "type": "function"
    },
    {
      "constant": false,
      "inputs": [
        {
          "internalType": "address",
          "name": "projAddr",
          "type": "address"
        },
        {
          "internalType": "uint256",
          "name": "buyAmount",
          "type": "uint256"
        }
      ],
      "name": "invest",
      "outputs": [],
      "payable": true,
      "stateMutability": "payable",
      "type": "function"
    },
    {
      "constant": true,
      "inputs": [
        {
          "internalType": "address",
          "name": "projAddr",
          "type": "address"
        }
      ],
      "name": "projectInvestmentPercentage",
      "outputs": [
        {
          "internalType": "uint256",
          "name": "",
          "type": "uint256"
        }
      ],
      "payable": false,
      "stateMutability": "view",
      "type": "function"
    },
    {
      "constant": false,
      "inputs": [
        {
          "internalType": "address payable",
          "name": "projAddr",
          "type": "address"
        }
      ],
      "name": "concludeTransaction",
      "outputs": [],
      "payable": true,
      "stateMutability": "payable",
      "type": "function"
    },
    {
      "constant": false,
      "inputs": [
        {
          "internalType": "string",
          "name": "_projName",
          "type": "string"
        },
        {
          "internalType": "string",
          "name": "_projDesc",
          "type": "string"
        },
        {
          "internalType": "string",
          "name": "_tokenName",
          "type": "string"
        },
        {
          "internalType": "uint256",
          "name": "_tokenValue",
          "type": "uint256"
        },
        {
          "internalType": "uint256",
          "name": "_interestRate",
          "type": "uint256"
        },
        {
          "internalType": "uint256",
          "name": "_projectDuration",
          "type": "uint256"
        },
        {
          "internalType": "uint256",
          "name": "_fundraiseGoal",
          "type": "uint256"
        },
        {
          "internalType": "address payable",
          "name": "_addr",
          "type": "address"
        }
      ],
      "name": "addProject",
      "outputs": [],
      "payable": false,
      "stateMutability": "nonpayable",
      "type": "function"
    },
    {
      "constant": true,
      "inputs": [
        {
          "internalType": "uint256",
          "name": "index",
          "type": "uint256"
        }
      ],
      "name": "getProjectByIndex",
      "outputs": [
        {
          "internalType": "uint256",
          "name": "",
          "type": "uint256"
        },
        {
          "internalType": "string",
          "name": "",
          "type": "string"
        },
        {
          "internalType": "string",
          "name": "",
          "type": "string"
        },
        {
          "internalType": "bool",
          "name": "",
          "type": "bool"
        },
        {
          "internalType": "bool",
          "name": "",
          "type": "bool"
        },
        {
          "internalType": "string",
          "name": "",
          "type": "string"
        },
        {
          "internalType": "uint256",
          "name": "",
          "type": "uint256"
        },
        {
          "internalType": "uint256",
          "name": "",
          "type": "uint256"
        },
        {
          "internalType": "uint256",
          "name": "",
          "type": "uint256"
        },
        {
          "internalType": "uint256",
          "name": "",
          "type": "uint256"
        },
        {
          "internalType": "uint256",
          "name": "",
          "type": "uint256"
        },
        {
          "internalType": "address payable",
          "name": "",
          "type": "address"
        }
      ],
      "payable": false,
      "stateMutability": "view",
      "type": "function"
    },
    {
      "constant": true,
      "inputs": [],
      "name": "getProjectLength",
      "outputs": [
        {
          "internalType": "uint256",
          "name": "",
          "type": "uint256"
        }
      ],
      "payable": false,
      "stateMutability": "view",
      "type": "function"
    },
    {
      "constant": true,
      "inputs": [
        {
          "internalType": "uint256",
          "name": "index",
          "type": "uint256"
        }
      ],
      "name": "getTransactionByIndex",
      "outputs": [
        {
          "internalType": "string",
          "name": "",
          "type": "string"
        },
        {
          "internalType": "address payable",
          "name": "",
          "type": "address"
        },
        {
          "internalType": "uint256",
          "name": "",
          "type": "uint256"
        },
        {
          "internalType": "string",
          "name": "",
          "type": "string"
        },
        {
          "internalType": "uint256",
          "name": "",
          "type": "uint256"
        },
        {
          "internalType": "uint256",
          "name": "",
          "type": "uint256"
        }
      ],
      "payable": false,
      "stateMutability": "view",
      "type": "function"
    },
    {
      "constant": true,
      "inputs": [],
      "name": "getTransactionLength",
      "outputs": [
        {
          "internalType": "uint256",
          "name": "",
          "type": "uint256"
        }
      ],
      "payable": false,
      "stateMutability": "view",
      "type": "function"
    }
  ],
  "bytecode": "0x60806040526001600055600060015560006002556000600355739e417b38db374b22221715eb9a092fb0cb70ee13600460006101000a81548173ffffffffffffffffffffffffffffffffffffffff021916908373ffffffffffffffffffffffffffffffffffffffff16021790555034801561007957600080fd5b5033600560006101000a81548173ffffffffffffffffffffffffffffffffffffffff021916908373ffffffffffffffffffffffffffffffffffffffff1602179055506122ca806100ca6000396000f3fe6080604052600436106100915760003560e01c806390af78cc1161005957806390af78cc146101b15780639196b229146101cd578063af34b6ae146101f8578063b77bf60014610223578063b9b8c2461461024e57610091565b80630e539a461461009657806313c12af6146100c15780632b7e328a146100fe5780632d647bdc14610146578063869152e71461016f575b600080fd5b3480156100a257600080fd5b506100ab61026a565b6040516100b89190612036565b60405180910390f35b3480156100cd57600080fd5b506100e860048036036100e39190810190611bd0565b610277565b6040516100f59190612036565b60405180910390f35b34801561010a57600080fd5b5061012560048036036101209190810190611d58565b61031c565b60405161013d9c9b9a99989796959493929190612051565b60405180910390f35b34801561015257600080fd5b5061016d60048036036101689190810190611c5e565b610689565b005b34801561017b57600080fd5b5061019660048036036101919190810190611d58565b6109ff565b6040516101a896959493929190611f27565b60405180910390f35b6101cb60048036036101c69190810190611bf9565b610e46565b005b3480156101d957600080fd5b506101e2611558565b6040516101ef9190612036565b60405180910390f35b34801561020457600080fd5b5061020d611565565b60405161021a9190612036565b60405180910390f35b34801561022f57600080fd5b5061023861156b565b6040516102459190612036565b60405180910390f35b61026860048036036102639190810190611c22565b611571565b005b6000600680549050905090565b600080600860008473ffffffffffffffffffffffffffffffffffffffff1673ffffffffffffffffffffffffffffffffffffffff1681526020019081526020016000206009015490506000600860008573ffffffffffffffffffffffffffffffffffffffff1673ffffffffffffffffffffffffffffffffffffffff168152602001908152602001600020600801549050606481838161031157fe5b040292505050919050565b600060608060008060606000806000806000806103376119c2565b60068e8154811061034457fe5b90600052602060002090600c0201604051806101a001604052908160008201548152602001600182018054600181600116156101000203166002900480601f0160208091040260200160405190810160405280929190818152602001828054600181600116156101000203166002900480156104015780601f106103d657610100808354040283529160200191610401565b820191906000526020600020905b8154815290600101906020018083116103e457829003601f168201915b50505050508152602001600282018054600181600116156101000203166002900480601f0160208091040260200160405190810160405280929190818152602001828054600181600116156101000203166002900480156104a35780601f10610478576101008083540402835291602001916104a3565b820191906000526020600020905b81548152906001019060200180831161048657829003601f168201915b505050505081526020016003820160009054906101000a900460ff161515151581526020016003820160019054906101000a900460ff16151515158152602001600482018054600181600116156101000203166002900480601f01602080910402602001604051908101604052809291908181526020018280546001816001161561010002031660029004801561057b5780601f106105505761010080835404028352916020019161057b565b820191906000526020600020905b81548152906001019060200180831161055e57829003601f168201915b505050505081526020016005820154815260200160068201548152602001600782015481526020016008820154815260200160098201548152602001600a820160009054906101000a900473ffffffffffffffffffffffffffffffffffffffff1673ffffffffffffffffffffffffffffffffffffffff1673ffffffffffffffffffffffffffffffffffffffff168152602001600b820154815250509050806000015181602001518260400151836060015184608001518560a001518660c001518760e001518861010001518961012001518a61014001518b61016001518a9a508999508696509c509c509c509c509c509c509c509c509c509c509c509c505091939597999b5091939597999b565b6106916119c2565b604051806101a0016040528060005481526020018a815260200189815260200160001515815260200160001515815260200188815260200187815260200186815260200185815260200184815260200160025481526020018373ffffffffffffffffffffffffffffffffffffffff1681526020014281525090506006819080600181540180825580915050906001820390600052602060002090600c02016000909192909190915060008201518160000155602082015181600101908051906020019061075f929190611a44565b50604082015181600201908051906020019061077c929190611a44565b5060608201518160030160006101000a81548160ff02191690831515021790555060808201518160030160016101000a81548160ff02191690831515021790555060a08201518160040190805190602001906107d9929190611a44565b5060c0820151816005015560e0820151816006015561010082015181600701556101208201518160080155610140820151816009015561016082015181600a0160006101000a81548173ffffffffffffffffffffffffffffffffffffffff021916908373ffffffffffffffffffffffffffffffffffffffff16021790555061018082015181600b015550505080600860008473ffffffffffffffffffffffffffffffffffffffff1673ffffffffffffffffffffffffffffffffffffffff1681526020019081526020016000206000820151816000015560208201518160010190805190602001906108cb929190611a44565b5060408201518160020190805190602001906108e8929190611a44565b5060608201518160030160006101000a81548160ff02191690831515021790555060808201518160030160016101000a81548160ff02191690831515021790555060a0820151816004019080519060200190610945929190611a44565b5060c0820151816005015560e0820151816006015561010082015181600701556101208201518160080155610140820151816009015561016082015181600a0160006101000a81548173ffffffffffffffffffffffffffffffffffffffff021916908373ffffffffffffffffffffffffffffffffffffffff16021790555061018082015181600b01559050506001600081548092919060010191905055506000808154809291906001019190505550505050505050505050565b60606000806060600080610a11611ac4565b60078881548110610a1e57fe5b9060005260206000209060040201604051806080016040529081600082015481526020016001820160009054906101000a900473ffffffffffffffffffffffffffffffffffffffff1673ffffffffffffffffffffffffffffffffffffffff1673ffffffffffffffffffffffffffffffffffffffff1681526020016002820160009054906101000a900473ffffffffffffffffffffffffffffffffffffffff1673ffffffffffffffffffffffffffffffffffffffff1673ffffffffffffffffffffffffffffffffffffffff1681526020016003820154815250509050610b016119c2565b60086000836020015173ffffffffffffffffffffffffffffffffffffffff1673ffffffffffffffffffffffffffffffffffffffff168152602001908152602001600020604051806101a001604052908160008201548152602001600182018054600181600116156101000203166002900480601f016020809104026020016040519081016040528092919081815260200182805460018160011615610100020316600290048015610bf35780601f10610bc857610100808354040283529160200191610bf3565b820191906000526020600020905b815481529060010190602001808311610bd657829003601f168201915b50505050508152602001600282018054600181600116156101000203166002900480601f016020809104026020016040519081016040528092919081815260200182805460018160011615610100020316600290048015610c955780601f10610c6a57610100808354040283529160200191610c95565b820191906000526020600020905b815481529060010190602001808311610c7857829003601f168201915b505050505081526020016003820160009054906101000a900460ff161515151581526020016003820160019054906101000a900460ff16151515158152602001600482018054600181600116156101000203166002900480601f016020809104026020016040519081016040528092919081815260200182805460018160011615610100020316600290048015610d6d5780601f10610d4257610100808354040283529160200191610d6d565b820191906000526020600020905b815481529060010190602001808311610d5057829003601f168201915b505050505081526020016005820154815260200160068201548152602001600782015481526020016008820154815260200160098201548152602001600a820160009054906101000a900473ffffffffffffffffffffffffffffffffffffffff1673ffffffffffffffffffffffffffffffffffffffff1673ffffffffffffffffffffffffffffffffffffffff168152602001600b82015481525050905080602001518161016001518260c001518360a0015185600001518660600151859550829250975097509750975097509750505091939550919395565b8060001515600860008373ffffffffffffffffffffffffffffffffffffffff1673ffffffffffffffffffffffffffffffffffffffff16815260200190815260200160002060030160009054906101000a900460ff16151514610edd576040517f08c379a0000000000000000000000000000000000000000000000000000000008152600401610ed490611ff6565b60405180910390fd5b6000603c600860008473ffffffffffffffffffffffffffffffffffffffff1673ffffffffffffffffffffffffffffffffffffffff1681526020019081526020016000206007015402905080600860008473ffffffffffffffffffffffffffffffffffffffff1673ffffffffffffffffffffffffffffffffffffffff168152602001908152602001600020600b015401421015610fae576040517f08c379a0000000000000000000000000000000000000000000000000000000008152600401610fa590612016565b60405180910390fd5b600860008473ffffffffffffffffffffffffffffffffffffffff1673ffffffffffffffffffffffffffffffffffffffff16815260200190815260200160002060090154600860008573ffffffffffffffffffffffffffffffffffffffff1673ffffffffffffffffffffffffffffffffffffffff16815260200190815260200160002060080154141561113c578273ffffffffffffffffffffffffffffffffffffffff166108fc349081150290604051600060405180830381858888f19350505050158015611080573d6000803e3d6000fd5b506001600860008573ffffffffffffffffffffffffffffffffffffffff1673ffffffffffffffffffffffffffffffffffffffff16815260200190815260200160002060030160006101000a81548160ff0219169083151502179055506001600860008573ffffffffffffffffffffffffffffffffffffffff1673ffffffffffffffffffffffffffffffffffffffff16815260200190815260200160002060030160016101000a81548160ff0219169083151502179055506113b1565b60008090505b6007805490508110156112f9578373ffffffffffffffffffffffffffffffffffffffff166007828154811061117357fe5b906000526020600020906004020160010160009054906101000a900473ffffffffffffffffffffffffffffffffffffffff1673ffffffffffffffffffffffffffffffffffffffff1614156112ec576000600782815481106111d057fe5b906000526020600020906004020160000154600860008773ffffffffffffffffffffffffffffffffffffffff1673ffffffffffffffffffffffffffffffffffffffff1681526020019081526020016000206005015402905060006007838154811061123757fe5b906000526020600020906004020160020160009054906101000a900473ffffffffffffffffffffffffffffffffffffffff1673ffffffffffffffffffffffffffffffffffffffff166108fc670de0b6b3a764000084029081150290604051600060405180830381858888f193505050509050806112e9576040517f08c379a00000000000000000000000000000000000000000000000000000000081526004016112e090611f96565b60405180910390fd5b50505b8080600101915050611142565b506000600860008573ffffffffffffffffffffffffffffffffffffffff1673ffffffffffffffffffffffffffffffffffffffff16815260200190815260200160002060030160016101000a81548160ff0219169083151502179055506001600860008573ffffffffffffffffffffffffffffffffffffffff1673ffffffffffffffffffffffffffffffffffffffff16815260200190815260200160002060030160006101000a81548160ff0219169083151502179055505b60008090505b600680549050811015611552578373ffffffffffffffffffffffffffffffffffffffff16600682815481106113e857fe5b90600052602060002090600c0201600a0160009054906101000a900473ffffffffffffffffffffffffffffffffffffffff1673ffffffffffffffffffffffffffffffffffffffff16141561154557600860008573ffffffffffffffffffffffffffffffffffffffff1673ffffffffffffffffffffffffffffffffffffffff16815260200190815260200160002060030160019054906101000a900460ff166006828154811061149357fe5b90600052602060002090600c020160030160016101000a81548160ff021916908315150217905550600860008573ffffffffffffffffffffffffffffffffffffffff1673ffffffffffffffffffffffffffffffffffffffff16815260200190815260200160002060030160009054906101000a900460ff166006828154811061151857fe5b90600052602060002090600c020160030160006101000a81548160ff021916908315150217905550611552565b80806001019150506113b7565b50505050565b6000600780549050905090565b60015481565b60035481565b81816000603c600860008573ffffffffffffffffffffffffffffffffffffffff1673ffffffffffffffffffffffffffffffffffffffff1681526020019081526020016000206007015402905080600860008573ffffffffffffffffffffffffffffffffffffffff1673ffffffffffffffffffffffffffffffffffffffff168152602001908152602001600020600b0154014210611643576040517f08c379a000000000000000000000000000000000000000000000000000000000815260040161163a90611fb6565b60405180910390fd5b600860008473ffffffffffffffffffffffffffffffffffffffff1673ffffffffffffffffffffffffffffffffffffffff16815260200190815260200160002060050154820234146116c9576040517f08c379a00000000000000000000000000000000000000000000000000000000081526004016116c090611fd6565b60405180910390fd5b600460009054906101000a900473ffffffffffffffffffffffffffffffffffffffff1673ffffffffffffffffffffffffffffffffffffffff166108fc349081150290604051600060405180830381858888f19350505050158015611731573d6000803e3d6000fd5b50600760405180608001604052808681526020018773ffffffffffffffffffffffffffffffffffffffff1681526020013373ffffffffffffffffffffffffffffffffffffffff16815260200186600860008a73ffffffffffffffffffffffffffffffffffffffff1673ffffffffffffffffffffffffffffffffffffffff1681526020019081526020016000206006015402815250908060018154018082558091505090600182039060005260206000209060040201600090919290919091506000820151816000015560208201518160010160006101000a81548173ffffffffffffffffffffffffffffffffffffffff021916908373ffffffffffffffffffffffffffffffffffffffff16021790555060408201518160020160006101000a81548173ffffffffffffffffffffffffffffffffffffffff021916908373ffffffffffffffffffffffffffffffffffffffff1602179055506060820151816003015550505083600860008773ffffffffffffffffffffffffffffffffffffffff1673ffffffffffffffffffffffffffffffffffffffff1681526020019081526020016000206009016000828254019250508190555060008090505b6006805490508110156119a8578573ffffffffffffffffffffffffffffffffffffffff166006828154811061191c57fe5b90600052602060002090600c0201600a0160009054906101000a900473ffffffffffffffffffffffffffffffffffffffff1673ffffffffffffffffffffffffffffffffffffffff16141561199b57846006828154811061197857fe5b90600052602060002090600c0201600901600082825401925050819055506119a8565b80806001019150506118eb565b506003600081548092919060010191905055505050505050565b604051806101a00160405280600081526020016060815260200160608152602001600015158152602001600015158152602001606081526020016000815260200160008152602001600081526020016000815260200160008152602001600073ffffffffffffffffffffffffffffffffffffffff168152602001600081525090565b828054600181600116156101000203166002900490600052602060002090601f016020900481019282601f10611a8557805160ff1916838001178555611ab3565b82800160010185558215611ab3579182015b82811115611ab2578251825591602001919060010190611a97565b5b509050611ac09190611b18565b5090565b604051806080016040528060008152602001600073ffffffffffffffffffffffffffffffffffffffff168152602001600073ffffffffffffffffffffffffffffffffffffffff168152602001600081525090565b611b3a91905b80821115611b36576000816000905550600101611b1e565b5090565b90565b600081359050611b4c81612242565b92915050565b600081359050611b6181612259565b92915050565b600082601f830112611b7857600080fd5b8135611b8b611b868261214d565b612120565b91508082526020830160208301858383011115611ba757600080fd5b611bb28382846121ef565b50505092915050565b600081359050611bca81612270565b92915050565b600060208284031215611be257600080fd5b6000611bf084828501611b3d565b91505092915050565b600060208284031215611c0b57600080fd5b6000611c1984828501611b52565b91505092915050565b60008060408385031215611c3557600080fd5b6000611c4385828601611b3d565b9250506020611c5485828601611bbb565b9150509250929050565b600080600080600080600080610100898b031215611c7b57600080fd5b600089013567ffffffffffffffff811115611c9557600080fd5b611ca18b828c01611b67565b985050602089013567ffffffffffffffff811115611cbe57600080fd5b611cca8b828c01611b67565b975050604089013567ffffffffffffffff811115611ce757600080fd5b611cf38b828c01611b67565b9650506060611d048b828c01611bbb565b9550506080611d158b828c01611bbb565b94505060a0611d268b828c01611bbb565b93505060c0611d378b828c01611bbb565b92505060e0611d488b828c01611b52565b9150509295985092959890939650565b600060208284031215611d6a57600080fd5b6000611d7884828501611bbb565b91505092915050565b611d8a816121a7565b82525050565b611d99816121b9565b82525050565b6000611daa82612179565b611db48185612184565b9350611dc48185602086016121fe565b611dcd81612231565b840191505092915050565b6000611de5601583612184565b91507f4661696c656420746f2073656e642045746865723200000000000000000000006000830152602082019050919050565b6000611e25601483612184565b91507f50726f6a6563742068617320656e6465642121210000000000000000000000006000830152602082019050919050565b6000611e65601d83612184565b91507f496e73756666696369656e742066756e6420746f2070757263686173650000006000830152602082019050919050565b6000611ea5601983612184565b91507f5061796d656e7420686173206265656e20736574746c656421000000000000006000830152602082019050919050565b6000611ee5601c83612184565b91507f50726f6a65637420686173206e6f7420656e64656420796574212121000000006000830152602082019050919050565b611f21816121e5565b82525050565b600060c0820190508181036000830152611f418189611d9f565b9050611f506020830188611d81565b611f5d6040830187611f18565b8181036060830152611f6f8186611d9f565b9050611f7e6080830185611f18565b611f8b60a0830184611f18565b979650505050505050565b60006020820190508181036000830152611faf81611dd8565b9050919050565b60006020820190508181036000830152611fcf81611e18565b9050919050565b60006020820190508181036000830152611fef81611e58565b9050919050565b6000602082019050818103600083015261200f81611e98565b9050919050565b6000602082019050818103600083015261202f81611ed8565b9050919050565b600060208201905061204b6000830184611f18565b92915050565b600061018082019050612067600083018f611f18565b8181036020830152612079818e611d9f565b9050818103604083015261208d818d611d9f565b905061209c606083018c611d90565b6120a9608083018b611d90565b81810360a08301526120bb818a611d9f565b90506120ca60c0830189611f18565b6120d760e0830188611f18565b6120e5610100830187611f18565b6120f3610120830186611f18565b612101610140830185611f18565b61210f610160830184611d81565b9d9c50505050505050505050505050565b6000604051905081810181811067ffffffffffffffff8211171561214357600080fd5b8060405250919050565b600067ffffffffffffffff82111561216457600080fd5b601f19601f8301169050602081019050919050565b600081519050919050565b600082825260208201905092915050565b60006121a0826121c5565b9050919050565b60006121b2826121c5565b9050919050565b60008115159050919050565b600073ffffffffffffffffffffffffffffffffffffffff82169050919050565b6000819050919050565b82818337600083830152505050565b60005b8381101561221c578082015181840152602081019050612201565b8381111561222b576000848401525b50505050565b6000601f19601f8301169050919050565b61224b81612195565b811461225657600080fd5b50565b612262816121a7565b811461226d57600080fd5b50565b612279816121e5565b811461228457600080fd5b5056fea365627a7a72315820ef4c54c1dbaa49a269af5978d8e55456f3faa35ffa8a79f92bd30a88e82a405e6c6578706572696d656e74616cf564736f6c63430005100040",
  "source": "//SPDX-License-Identifier: MIT\r\npragma solidity ^0.5.0;\r\npragma experimental ABIEncoderV2;\r\n\r\ncontract CryptPad {\r\n    enum TransactionStatus {Pending, Completed, Refunded}\r\n    uint private constant eighteen_decimals_value = 1000000000000000000;\r\n    uint private constant four_decimals_value = 10000;\r\n\r\n    struct Project{\r\n            uint projectId;\r\n            string projectName;\r\n            string projectDescription;\r\n            bool hasSettledPayment;\r\n            bool projectSuccess;\r\n            string tokenName;\r\n            uint tokenValue;\r\n            uint interestRate;\r\n            uint projectDuration;\r\n            uint fundraiseGoal;\r\n            uint totalRaised;\r\n            address payable projectAddress;\r\n            uint dateCreated;\r\n        }\r\n\r\n    struct Transaction {\r\n        uint amount;\r\n        address projectAddress;\r\n        address payable investorAddress;\r\n        uint interest;\r\n    }\r\n\r\n    uint projectId = 1;\r\n    uint public projCount = 0;\r\n    uint totalRaised = 0;\r\n    uint public transactionCount = 0;\r\n    address payable platformAddress = 0x9E417B38dB374B22221715EB9A092FB0Cb70EE13;\r\n\r\n    address admin;\r\n    Project[] project;\r\n    Transaction[] transaction;\r\n    \r\n    mapping(address => Project) projects;\r\n\r\n    constructor() public{\r\n        admin = msg.sender;\r\n    }\r\n\r\n    modifier onlyAdmin(){\r\n        require (admin == msg.sender, \"Only admin can use this function\");\r\n        _;\r\n    }\r\n\r\n     modifier chkValidity(address projAddr, uint buyAmount){\r\n        //require(projects[projAddr].projectStatus == ProjectStatus.Launch, \"Project has yet to start or has ended\");\r\n        uint duration = projects[projAddr].projectDuration * 1 minutes;\r\n        require(block.timestamp < (projects[projAddr].dateCreated + duration), \"Project has ended!!!\");\r\n        require(msg.value == (buyAmount * projects[projAddr].tokenValue), \"Insufficient fund to purchase\");\r\n        _;\r\n    }\r\n\r\n    //for Invest in new project/ multiple projects + Add investment\r\n    function invest( address projAddr, uint buyAmount) public payable chkValidity(projAddr, buyAmount){\r\n        \r\n        //(bool sent, ) = platformAddress.call {value:msg.value} (\"\");\r\n        //require(sent, \"Failed to send Ether\");\r\n        address(platformAddress).transfer(msg.value);\r\n       //when display at ui, need divide 10000\r\n        transaction.push(Transaction(buyAmount, projAddr, msg.sender, (projects[projAddr].interestRate*buyAmount)));\r\n        \r\n        projects[projAddr].totalRaised += buyAmount;\r\n\r\n        for (uint i = 0; i < project.length; i++) {\r\n            if (project[i].projectAddress == projAddr) {\r\n                project[i].totalRaised += buyAmount;\r\n                break;\r\n            }\r\n        }\r\n\r\n        transactionCount++;\r\n    }\r\n\r\n    function projectInvestmentPercentage(address projAddr) public view returns (uint) {\r\n            uint a = projects[projAddr].totalRaised;\r\n            uint b = projects[projAddr].fundraiseGoal;\r\n\r\n            return (a / b * 100);\r\n    }\r\n\r\n    modifier chkStatus(address projAddr){\r\n        require(projects[projAddr].hasSettledPayment == false, \"Payment has been settled!\");\r\n        uint duration = projects[projAddr].projectDuration * 1 minutes;\r\n        require(block.timestamp >= (projects[projAddr].dateCreated + duration), \"Project has not ended yet!!!\");\r\n        _;\r\n    }\r\n\r\n    function concludeTransaction(address payable projAddr) public payable chkStatus(projAddr){\r\n        //require(projects[projAddr].projectStatus == ProjectStatus.End, \"Project has not ended yet\");\r\n        if(projects[projAddr].fundraiseGoal == projects[projAddr].totalRaised){\r\n            //give to project address\r\n            //bool sent = projAddr.send((projects[projAddr].fundraiseGoal*(projects[projAddr].tokenValue)));\r\n            address(projAddr).transfer(msg.value);\r\n            //bool sent = projAddr.send(msg.value);\r\n            \r\n            //require(sent, \"Failed to send Ether1\");\r\n            //distribute token along with annualPercentageYield\r\n            // for(uint i=0; i < transaction.length; i++){\r\n            //     if(transaction[i].projectAddress == projAddr){\r\n            //         uint apy = (((1 + ((projects[projAddr].annualPercentageYield/10000)/projects[projAddr].farmingPeriod))**(projects[projAddr].farmingPeriod))-1)*four_decimals_value;\r\n            //         transaction[i].amount = (transaction[i].amount + ((transaction[i].amount * apy)));\r\n            //      }\r\n            // }\r\n            projects[projAddr].hasSettledPayment = true;\r\n            projects[projAddr].projectSuccess = true;\r\n        }\r\n        else{\r\n           //refund\r\n            for(uint i=0; i < transaction.length; i++){\r\n            //address payable investorAddr = transaction[i].investorAddress;\r\n                if(transaction[i].projectAddress == projAddr){\r\n                    uint refundAmount = projects[projAddr].tokenValue * transaction[i].amount;\r\n                    bool sent = transaction[i].investorAddress.send(refundAmount*eighteen_decimals_value);\r\n                     //(bool sent,) = transaction[i].investorAddress.call(abi.encode(refundAmount));\r\n                     require(sent, \"Failed to send Ether2\");\r\n                    //payable(investorAddr).transfer(transaction[i].amount);\r\n                 }\r\n             }\r\n            projects[projAddr].projectSuccess = false;\r\n            projects[projAddr].hasSettledPayment = true;\r\n        }\r\n\r\n        for (uint i = 0; i < project.length; i++) {\r\n            if (project[i].projectAddress == projAddr) {\r\n                project[i].projectSuccess =  projects[projAddr].projectSuccess;\r\n                project[i].hasSettledPayment =  projects[projAddr].hasSettledPayment;\r\n                break;\r\n            }\r\n        }\r\n    }\r\n\r\n    // Add Project\r\n    function addProject(string memory _projName, string memory _projDesc, string memory _tokenName, uint _tokenValue, uint _interestRate, uint _projectDuration, uint _fundraiseGoal, address payable _addr) public{\r\n        Project memory proj = Project(projectId, _projName, _projDesc, false, false,_tokenName,_tokenValue, _interestRate, _projectDuration, _fundraiseGoal, totalRaised, _addr, block.timestamp);\r\n\r\n        project.push(proj);\r\n        projects[_addr] = proj;\r\n        projCount ++;\r\n        projectId ++;\r\n    }\r\n\r\n    function getProjectByIndex(uint index) public view returns (uint, string memory, string memory, bool, bool, string memory, uint, uint, uint, uint, uint, address payable) {\r\n        Project memory proj = project[index];\r\n\r\n        return (proj.projectId, proj.projectName, proj.projectDescription, proj.hasSettledPayment, proj.projectSuccess, proj.tokenName, proj.tokenValue, proj.interestRate, proj.projectDuration, proj.fundraiseGoal, proj.totalRaised, proj.projectAddress);\r\n    }\r\n\r\n    function getProjectLength() public view returns (uint) {\r\n        return project.length;\r\n    }\r\n\r\n    function getTransactionByIndex(uint index) public view returns (string memory, address payable, uint, string memory, uint, uint) {\r\n        Transaction memory trans = transaction[index];\r\n        Project memory proj = projects[trans.projectAddress];\r\n\r\n        return (proj.projectName, proj.projectAddress, proj.tokenValue, proj.tokenName, trans.amount, trans.interest);\r\n    }\r\n\r\n    function getTransactionLength() public view returns (uint) {\r\n        return transaction.length;\r\n    }\r\n}",
  "sourcePath": "C:\\Users\\CZY\\Desktop\\Dapp\\CryptPad\\contracts\\CryptPad.sol",
  "compiler": {
    "name": "solc",
    "version": "0.5.16+commit.9c3226ce.Emscripten.clang"
  },
  "schemaVersion": "3.4.3",
  "updatedAt": "2021-12-17T12:53:08.566Z",
  "networkType": "ethereum",
  "devdoc": {
    "methods": {}
  },
  "userdoc": {
    "methods": {}
  }
}